:100000000C9467020C9484020C9484020C94840275
:100010000C9484020C9484020C9484020C94840248
:100020000C9484020C9484020C94D7110C94191132
:100030000C94791A0C9484020C9484020C9484021B
:100040000C9484020C9484020C9484020C94840218
:100050000C9484020C94381A0C9484020C9484023C
:100060000C9484020C9484020C9484020C948402F8
:100070000C9484020C9484020C9484020C948402E8
:100080000C9484020C9484020C9484020C948402D8
:100090000C9484020C9484020C9484020C948402C8
:1000A0000C9484020C9484020C948402D104D10434
:1000B000030503056D0589051E071E0794057206D5
:1000C000830683062C0F530F0111530F01119F0F4D
:1000D000C20F0111B710C710041809181318071818
:1000E0000C1811180F184119441947194A194D19BC
:1000F0005019531935002B002961E100AE5D000055
:100100001E00140004001D613400BE001F001A0010
:1001100016001B00E0000253200008000700060044
:10012000506401542100150009001900E300BD00CE
:10013000220017000A000500000001000100000F66
:100140000000000700000100A800A9000000AA00AC
:1001500000004A0023001C000B00110000004D00AD
:10016000240018000D0010002C004B0025000C008E
:100170000E00360050002A00260012000F00370043
:1001800051004C00270013003300387152004E001C
:100190002D0031002800E5004F000000290001007B
:1001A00001000100010000003A001E0220022202AC
:1001B0002E0001003B001F0221022302010001006A
:1001C0003C002F0226022F00010010503D0030029B
:1001D00027023000010001003E00310235003502E7
:1001E000000001000100010000000100000001000A
:1001F000010001000000010000004A003F002E0243
:100200002E00240200004D004000240021001E00AA
:1002100001004B004100250022001F0027002A009A
:10022000420026002300200037004C004300250236
:10023000340034022E004E002D0031000100E50094
:100240004F0000000100010001000100010000005A
:100250000100010001000100010001000100010096
:10026000EF000100010001000100ED00EE000100BF
:10027000F100010001000100F0000100F2000100A6
:100280000100010001000100000001000100010067
:100290000000010000000100010001000000010059
:1002A0000000010001000100010001000000010048
:1002B0000100010001000100A9000100010001008E
:1002C0000100AC00AA00B600010001000100AB0073
:1002D000A80001000100010001000100010001006F
:1002E000005C0100AE000100010000000501098072
:1002F000A101850319012AB700150126B700950150
:1003000075108100C0050C0901A101850419012A9D
:10031000A002150126A002950175108100C00501FB
:100320000906A1018506050719E029E71500250141
:100330009508750181020507190029EF15002501AF
:1003400095F07501810205081901290595057501CA
:100350009102950175039101C005010902A10109EE
:1003600001A1000509190129081500250195087545
:100370000181020501093009311581257F9502753A
:1003800008810609381581257F95017508810605C4
:100390000C0A38021581257F950175088106C0C0B9
:1003A0000660FF0961A1010962150026FF00952082
:1003B000750881020963150026FF009520750891D4
:1003C00002C005010906A101050719E029E715008A
:1003D00025019508750181029501750881010507C0
:1003E000190029FF150026FF0095067508810005F4
:1003F000081901290595057501910295017503916B
:1004000001C009027400040100A0FA0904000001FF
:1004100003010100092111010001224000070581AB
:100420000308000109040100020300000009211172
:1004300001000122220007058303200001070504B3
:100440000320000109040200010301020009211137
:100450000100012247000705820308000109040387
:10046000000103000000092111010001226D0007B5
:1004700005850320000112010002000000089732E8
:100480007449010001020001160345007200670073
:100490006F0044006F007800200045005A00000003
:1004A00028035A00530041002000540065006300F7
:1004B00068006E006F006C006F006700790020001C
:1004C0004C00610062007300000004030904112461
:1004D0001FBECFEFDAE0DEBFCDBF11E0A0E0B1E09C
:1004E000E2EEF4E402C005900D92AA36B107D9F706
:1004F00022E0AAE6B1E001C01D92A33CB207E1F7F9
:100500000E9437130C946F220C940000A5E2B0E017
:10051000ECE8F2E00C94DF1FFC01808191812381E3
:100520003481232B31F09F3F31F491E08F3F19F458
:1005300003C091E001C090E090FDBEC47F0185E062
:10054000DE01919601900D928A95E1F7D7011296FE
:100550002C9189A19AA1222349F00E94881C182F6E
:10056000682F89A19AA10E94061D03C00E94D11C78
:10057000182F69A17AA1812F0E94A5078C01809173
:100580002202882309F44FC0F7018281811184C4BB
:10059000E0916C01E330A0F481E08E0F80936C0158
:1005A000F0E0EE0FFF1FE35AFD4FD7018D919C91B4
:1005B0009183808382E08983CE0101960E940B1390
:1005C000BFEFE3EDF0E3B150E040F040E1F700C0F1
:1005D000000080916C01833009F05EC410926C01C0
:1005E000E3E6F2E0ADE5B2E089E692E03181119612
:1005F0002C911197321330C030812C9132132CC0C2
:10060000329612968E179F0789F784E0898381E0DE
:10061000809323028EEF8A8310922202CE010196EC
:100620000E940B1339C4809123028823D1F0D70193
:1006300012968C91811102C087E001C086E0898307
:10064000F70180818A8381818B838EEF8C83CE0139
:1006500001960E940B1305C083E089831092230248
:10066000D9CF0F3AFDE51F0709F043C0D701129615
:100670008C91882309F45EC09091270281E0890F54
:100680008770987F853020F4892B8093270202C0E1
:1006900090932702809127028770BFEF8B9FC00144
:1006A000112495958795959587959927909389001D
:1006B0008093880090938B0080938A0090938D00A4
:1006C00080938C004091270250912802609129026A
:1006D00070912A028FE090E00E94B220609139026E
:1006E00070913A0280913B0290913C020E94EA177D
:1006F00021C00E3AEDE51E07E9F4D70112968C9160
:10070000882309F4C9C380917702882319F00E94D5
:10071000031BC2C31092F4010E94D5090E946D1AF6
:1007200088579C4E90935B0280935A0281E080939D
:100730007702B2C380917702882309F472C0D09007
:10074000F401C090E6010E946D1A88579C4E909368
:100750005B0280935A02F7018281882309F461C009
:100760008C2D8D298D7909F057C00115F5E51F07EE
:10077000B0F4011523E5120708F053C0011530E568
:10078000130740F4011580E4180708F5063E11052B
:1007900029F547C0011592E5190700F542C001157A
:1007A000A9E51A0748F40115B8E51B07D0F504318F
:1007B000E5E51E0799F435C0C801905681159042B1
:1007C00068F4D70115968C91807F29F425C0F70134
:1007D0008581807F61F1C801992701C0C80110920D
:1007E00076028832910530F48E319105C0F4049779
:1007F00098F00EC08D32910559F018F48A9779F06F
:100800000BC08C34910559F08D32924041F004C0F8
:1008100082E08093760203C00E94031B02C00E9404
:10082000E209D70112968C91882309F46EC00C3529
:100830002DE5120709F464C060F401158CE5180772
:10084000A9F00F3D9CE5190709F05FC00E94580907
:100850004CC00E35ADE51A0709F44AC008F452C081
:10086000093AEDE51E0709F440C04FC01092F401AB
:100870000E94F21DFFEF04E31CE0F1500040104025
:10088000E1F700C00000F89481E08093E00080E28E
:100890008093D8001092C9008FE19EE40197F1F790
:1008A00000C000001DBA109268001CBC10BE1FBA28
:1008B00010927A0010926E0010926F0010927100E8
:1008C000109272001092C9001092BC0014B817B8B0
:1008D0001AB81DB810BA1092BC0015B818B81BB8D9
:1008E0001EB811BA0C94003FD7C20E94D217D4C2CE
:1008F0008091840282FB882780F991E0892703C0D8
:1009000081E001C080E00E94540AF70182810081E9
:100910001181882349F0C8010E94881CD82E682FB5
:10092000C8010E94061D04C0C8010E94D11CD82E17
:10093000B8018D2D0E94A5070E94BE078C01982E3C
:10094000F701D280A580A2949FE0A9228091C501E1
:100950008770B9F0DD20A9F0812F807F803421F0ED
:1009600080E2800F883068F08091840282FF09C0A5
:1009700082E00E94370A8091C5018770CC24C3941D
:100980008111C12CB12EB2948FE0B8228B2D90E052
:100990008C30910508F052C2FC01EA5AFF4F0C94CA
:1009A0003B21812F807F1F70882311F01295107FCB
:1009B000DD20B9F0112309F42EC280E2800F8830C7
:1009C00010F0911006C08091F401182B1093F401DF
:1009D00005C080917602182B109376020E94E209DE
:1009E0001AC2802F0E94171E112309F427C2005E2D
:1009F000083078F1992069F11095809176021823DA
:100A00001093760229C0812F807F1F70803211F0F1
:100A10001295107F992021F0F1E09F16D9F147C07F
:100A20008091840282FD1BC0DD2069F0112339F022
:100A30008091F401182B1093F4010E94E20980E0E8
:100A40000E944C1EFBC180E00E94171E112309F476
:100A5000F5C1812F0E94DB090E94E209EFC1DD2070
:100A600081F08091E601AA2051F001E0A01207C0B8
:100A7000182B181709F4E2C11093E601DFC1812B8E
:100A800010C0AA2021F021E0A21609F4D7C10E94CB
:100A9000D5091FC0DD2041F031E03A1508F4CEC180
:100AA000812F0E940D1ECAC1A110C8C112C0DD2035
:100AB00019F0AA20A9F3AFC1AA2059F0093309F00F
:100AC000BAC18FEF97EEA3E081509040A040E1F7CC
:100AD000B0C1812F0E94061EB1C1812F86958695D7
:100AE000837019F0813059F0A9C1DD2019F0C801D7
:100AF000937002C080E090E00E94E01AA5C1DD2062
:100B000019F0C801937002C080E090E00E94CA1AF8
:100B10009BC1802FDD2019F00E94111C02C00E9491
:100B2000571B0E94301B90C1812F837009F069C050
:100B3000D11088C1902F929596959770990F990F23
:100B4000802F8F70882E912CA12CB12C092E04C0DF
:100B5000880C991CAA1CBB1C0A94D2F704FF12C073
:100B60004FE050E060E070E004C0440F551F661F86
:100B7000771F9A95D2F7DB01CA0180959095A095D1
:100B8000B09503C080E090E0DC0116951695412FEA
:100B90004370423019F1C8F40091E7011091E80167
:100BA0002091E9013091EA01413059F088299929D1
:100BB000AA29BB29BC01CD01602371238223932381
:100BC0000AC0802A912AA22AB32ABC01CD01682931
:100BD00079298A299B290E94C71D34C1882999290E
:100BE000AA29BB290091E7011091E8012091E901B0
:100BF0003091EA01BC01CD0160277127822793273C
:100C0000EACFDD2019F0812F817001C086958823FD
:100C100009F418C1902F929596959770990F990F96
:100C2000802F8F70882E912CA12CB12C092E04C0FE
:100C3000880C991CAA1CBB1C0A94D2F704FF12C092
:100C40004FE050E060E070E004C0440F551F661FA5
:100C5000771F9A95D2F7DB01CA0180959095A095F0
:100C6000B09503C080E090E0DC0116951695412F09
:100C700043704230D9F068F50091390210913A0280
:100C800020913B0230913C02413059F0882999294A
:100C9000AA29BB29BC01CD016023712382239323A0
:100CA0001EC0802A912AA22AB32A13C08829992912
:100CB000AA29BB290091390210913A0220913B02E6
:100CC00030913C02BC01CD01602771278227932718
:100CD00006C0BC01CD01682979298A299B290E9477
:100CE0003C1DB0C01F70DD2039F0812F0E94A51D72
:100CF000802F0E940D1EA6C0802F0E94061E812FED
:100D00000E947F1D9FC0802FB2EF9B1609F441C047
:100D1000B91538F0E0EF9E1659F0F1EF9F16A1F1EA
:100D200075C023EF9216E1F134EF931649F16EC0CE
:100D3000DD2009F1A11082C01F7181E090E0A0E0E8
:100D4000B0E0AC01BD0104C0440F551F661F771F02
:100D50001A95D2F78091390290913A02A0913B0204
:100D6000B0913C028A019B01082719272A273B27BB
:100D7000C901B80129C021E02A1508F45FC0DCCF01
:100D80008091840282FD23C0DD2029F0812F8F71A4
:100D900030C0DD20D9F3812F8F710E947F1D4EC09E
:100DA000DD2079F01F7181E090E0A0E0B0E0BC01AF
:100DB000CD0104C0660F771F881F991F1A95D2F7BF
:100DC00003C060E070E0CB010E943C1D37C0DD2015
:100DD00099F01F71812F0E94A51D8091840282FFCE
:100DE00007C038E0139FC001112483608093C501C0
:100DF000812F0E94A51D22C081E00E94370A81E058
:100E00008A15E0F482E00E94370A18C0DD2029F03C
:100E1000AA2009F4BBCF802F13CEAA2009F4BBCFA0
:100E2000893349F49FEFA7EEB3E09150A040B04062
:100E3000E1F700C00000802F0E94171E88EF8B0D85
:100E4000843010F40E94F61ACC20A9F08091C501DC
:100E500080FD11C0F70112828595859585950E94C8
:100E6000A51DC7010E9486028091C50185958595C3
:100E700085950E947F1D85E0F701DE0111960190A6
:100E80000D928A95E1F709811A81C8010E94D11C4F
:100E9000B8010E94A50710C08091C501877061F05C
:100EA000D70112968C91882339F08091840282FFB9
:100EB00003C082E00E94370AA596ECE00C94FB1F69
:100EC00080E008959091830292FF0DC0282F287131
:100ED000283019F4877F846006C0282F24712430BD
:100EE00011F48B7F886093FF0DC0282F2871283163
:100EF00019F4877E846106C0282F2471243111F4EF
:100F00008B7E88612091840220FF0DC0382F3871BC
:100F1000383019F4877F816006C0382F3171313045
:100F200011F48E7F886021FF0DC0282F2871283191
:100F300019F4877E816106C0282F2171213111F4B7
:100F40008E7E886194FD877E08957E30A0F46630A1
:100F500090F494E5899FF001112486E0789FE00DDC
:100F6000F11D1124E60FF11DEE0FFF1FEC50FF4F96
:100F700085919491089580E090E00895CF93DF9358
:100F80008238910569F1B0F48133910509F46FC09D
:100F900048F48932910509F465C08A32910509F453
:100FA0006BC08AC08533910509F457C08933910518
:100FB000B9F082C0833E910571F138F4803E91050D
:100FC000B1F0823E910511F177C0863E9105B9F1ED
:100FD000873E9105C9F1843E910509F06DC024C09A
:100FE0002091830220FD53C021FD51C065C0809136
:100FF000830280FD46C08091840280FF48C08091BA
:10100000830284FD50C183EE90E04FC18091830242
:1010100082FF3AC0F4CF8091830282FD35C0809177
:10102000840280FD34C0EBCF8091840281FF35C003
:101030008091830284FD37C187EE90E036C18091B4
:10104000830283FF27C0F4CF8091830283FD22C0F7
:101050008091840281FD21C0EBCF8091830285FDC8
:101060001FC021C08091830285FD1DC019C08091E1
:10107000830286FD1BC01DC08091830286FD19C0BE
:1010800015C089E390E011C182EE90E00EC180EEC0
:1010900090E00BC186EE90E008C184EE90E005C1BF
:1010A00089E290E002C185E390E0FFC08AE290E02F
:1010B000FCC081E390E0F9C0811531E5930708F0A9
:1010C00069C0811540E59407F0F09C0174E0369505
:1010D00027957A95E1F7922F9370482F437021E07E
:1010E00030E002C0220F331F4A95E2F73C68392BEB
:1010F000982F9F709695969540E2949FC001112479
:10110000822B932BD2C0883E910568F5803E9105D5
:1011100008F0CBC0883A9105B8F4853A910548F0BB
:10112000855AE82FF0E0E75EFE4F808190E0906402
:10113000BCC08130910509F4B3C008F4B4C0843058
:10114000910508F4B0C0B1C08F3B910508F0ABC069
:10115000885AE82FF0E0EE0FFF1FE45EFE4F80811B
:1011600091819464A2C0811520E2920758F4811500
:1011700031E0930708F099C08D3E910508F493C0C3
:10118000906593C0811540E4940708F48CC09F706B
:10119000906A8BC0811525E5920708F042C0811541
:1011A00034E5930728F0982F8827846F906A7DC0D4
:1011B000811543E59407B0F09C012370332741E08B
:1011C00050E002C0440F551F2A95E2F7282F2695BC
:1011D000269580E2289F90011124CA01822B932B2F
:1011E0009A6863C0811522E5920728F4982F882712
:1011F000816F906A5AC09C012370332741E050E010
:1012000002C0440F551F2A95E2F7282F26952695F0
:1012100080E2289F90011124CA01822B932B9C68A5
:1012200044C0EC01811539E59307A8F48115984570
:1012300028F09C2F8827806F906A37C0C11586E5FB
:10124000D80788F58C2F0E9462078F7190E0982F45
:10125000882790622AC081152AE5920790F48C2F86
:101260008F700E94620794E0D695C7959A95E1F732
:10127000CF70D0E0DC2FCC27D0699E01282BC9018C
:1012800014C090568115904270F48D2F8F710E947A
:101290006207282F2F71CE0199279062922B05C0EB
:1012A00081E090E002C080E090E0DF91CF9108956E
:1012B00068EE7EEF80E090E00E94BE2060E082E079
:1012C00090E00E94A02060E083E090E00E94A020D7
:1012D0001092E7011092E8011092E9011092EA01E0
:1012E00060E084E090E00E94A02064E082E290E070
:1012F0000E94A02060E085E090E00E94A02060E0D5
:1013000086E090E00E94A0206FEF87E090E00E94CE
:10131000A02040E050E0BA0188E090E00E94B220B6
:1013200060E08DE090E00E94A02040E050E0BA0133
:1013300088E190E00E94B22060E087E190E00E94A6
:10134000A02040E050E0BA018CE190E00E94B22081
:1013500060E070E080E290E00E94BE2040E050E05B
:10136000BA0188E190E00E94B22010922702109208
:1013700028021092290210922A0284E08061809350
:101380002702409127025091280260912902709112
:101390002A028FE090E00E94B22040E050E0BA01C3
:1013A00083E190E00E94B22008958091E6018111CE
:1013B0001092E601089580959091F401892380931D
:1013C000F40108959091F40180917602982B909306
:1013D0006D018091E6018823D9F0892B80936D01FE
:1013E00080910A01882331F08091830287FF02C037
:1013F0008EE101C086E0EFE6F1E090E0815028F058
:1014000021912223D9F39F5FF9CF91110E94D50931
:1014100040E250E066EC71E08DE691E00E946222CD
:10142000892B21F180E2EDE6F1E0A6ECB1E001903C
:101430000D928A95E1F7E0917A02F0917B02309764
:10144000A9F080910A01882359F08091830287FFD7
:1014500007C080916D0180936E0186E080936D01DD
:101460000280F381E02D8DE691E0099508952091A9
:10147000C501809582238093C501982F977099F4B8
:1014800030E0482F082E000C550B2417350759F073
:101490009091840292FF07C08595859585950E945D
:1014A0007F1D1092C5010895CF93C0918402C2FBA5
:1014B000992790F9981791F080FBC2F9C0938402A4
:1014C0006091830284E090E00E94A0206C2F82E271
:1014D00090E00E94A02082E00E94370ACF910895F8
:1014E0008091C40190919301891719F08F5F8770E3
:1014F000FBCF08950F931F93CF93DF9380919201B9
:1015000082958F7009F05AC080918F01882309F469
:1015100055C08091C4011091930160918D0170912B
:101520008E01C0919001D091910191E06F3F09F03F
:1015300090E0292F06E0811709F440C0209721F0A0
:101540007F3F21F030E003C031E001C0322F90E056
:1015500030FD31C0089FF001099FF00D1124DF011B
:10156000AC56BE4F11963C911197371324C03C9155
:10157000361321C012963C91129731111CC013965C
:101580004D915C9114974C1B5D0B483C510598F4B0
:10159000809192018F70806180939201E756FE4F97
:1015A00080818F70806180838DE891E00E94860247
:1015B0000E94700A03C001968770BDCFDF91CF9162
:1015C0001F910F910895A1E1B0E0E9EEFAE00C94CB
:1015D000E01F8C0185E0F801DE011D9601900D925F
:1015E0008A95E1F7F801E28090918D0160918E017A
:1015F00040919001509191014115510531F06F3F9B
:1016000031F481E09F3F19F403C081E001C080E024
:10161000F82FF1709F2E80FD1BC1F80130812181D0
:10162000C380D4808DE8A82E81E0B82EF0908F0181
:10163000F601E41BF50BFF2009F4C7C0809192016D
:10164000E83CF10508F092C0482F407F09F051C0F6
:10165000621311C093130FC0FE2CE1100CC08F70E9
:10166000806180939201C5010E948602809192015F
:10167000F80185832AC1C114D10431F02F3F31F420
:1016800081E03F3F19F403C081E001C080E080FDAC
:1016900003C081E08E2502C080E090E0F82FF17059
:1016A000FF2E80FF1CC08091C4014091930156E041
:1016B000841709F4E8C090E0589FF001599FF00D9D
:1016C0001124EC56FE4F6181261306C0608163131E
:1016D00003C06281E61203C001968770E9CFFE2C39
:1016E000EE2009F4F2C08091920181608093920112
:1016F00049C0621306C0931304C0E11002C0F80190
:1017000086C0C8010E94D21D882351F1EE2041F10C
:1017100020919201822F82958F7090E0029774F051
:1017200080918D0190918E0198878F831986DB8639
:10173000CA862C87CE0107960E94860286E0F801B1
:10174000ADE8B1E001900D928A95E1F70E947A0A26
:101750000AC06217C9F0C8010E94D21D81111EC0C3
:10176000C8010E948602FF24F394AFC0482F407F37
:1017700081F78DE891E00E94860286E0F5011192E2
:101780008A95E9F7F12CA1C09313E5CFE110E3CFDF
:10179000F8018583C8010E94860254C0EE2001F33F
:1017A00020919201822F82958F7090E0029734F2FF
:1017B00080918D0190918E019A8389831B82DD82B5
:1017C000CC822E83CE010196B7CFE83CF105D0F54F
:1017D000FE2CEE2029F2621327C0931325C020911E
:1017E000920120FD18C0822F82958F70482F50E003
:1017F0004115510581F0F80125834F30510541F025
:101800008F5F982F9295907F822F8F70892B858381
:10181000C8010E94860286E0F801ADE8B1E00190BF
:101820000D928A95E1F751C0C8010E94D21D811125
:1018300085CF80919201816080939201C8010E94BE
:10184000860243C086E0F50111928A95E9F73DC012
:10185000EE2009F485CFC8010E94D21DF82E8823FE
:1018600009F47ECF86E0F801ADE8B1E001900D9279
:101870008A95E1F780918D0190918E010E94C41CA0
:101880000E947A0A22C03D872E878D859E850E9400
:10189000C41C292F22952F70223028F49F7039F014
:1018A000811105C00BC0243028F49F7049F4805E7C
:1018B000883020F0C8010E9486029F2CF92C05C0B8
:1018C000F8019581907F99F7F9CF8F2D6196EBE024
:1018D0000C94FC1FA0E0B0E0E0E7FCE00C94E21FF9
:1018E0008091170190911801892B91F08091EB0163
:1018F0008F5F8093EB0181110BC00E941C1890E058
:101900009093180180931701892B11F40E9493186A
:101910000BE212E07801B12CC0E087E0C82ECC0EBB
:101920008C2F0E9403198C2D0E9403198C2F0E946A
:1019300066198F73F7019081891721F08083DD2468
:10194000D39401C0D12C8C2D0E9466198F73F7019E
:101950009781891719F0878381E001C080E0D82A38
:10196000BD280E945719CF5FFFEFEF1AFF0AC7305B
:10197000A1F6C091EF01CC23C9F10E946D1A20910C
:10198000ED013091EE01AC01421B530B9A01909393
:10199000EE018093ED014F3F510509F020F4452BF6
:1019A00009F4AEC002C02FEF30E01092EF011092A8
:1019B000EC01E0912502F0912602AF01425F5F4FFA
:1019C00090E030E08081882341F0281718F01082E1
:1019D0009C2F03C0821B80833C2F3196E417F507B0
:1019E00089F73093EF019093EC018AC0BB2009F492
:1019F0007EC00E946D1A9093EE018093ED01E091FC
:101A00002502F09126028091EF01ADE3B2E09F0143
:101A1000225F3F4F4EE1E80199918E015C91591789
:101A200031F05081511103C040839C9381E0319685
:101A30001196E217F30779F78093EF0120912202C4
:101A40008091F1019091F201222309F43FC0892B8A
:101A500031F425982D9826982E9827982F988091C4
:101A6000F1019091F2019170892B79F48091F0014C
:101A7000882319F026982E9802C0269A2E9A9091C3
:101A8000F00181E089278093F0018091F10190912C
:101A9000F2018130984780F0109222026091390261
:101AA00070913A0280913B0290913C020E94EA17A9
:101AB0001092F2011092F1018091F1019091F201E6
:101AC00001969093F2018093F1011EC0892BE1F001
:101AD0001092F2011092F1016091390270913A0274
:101AE00080913B0290913C020E94EA170DC080E079
:101AF0009091EC01992309F4A1CF811180CF79CF86
:101B0000B1107DCF81E0F4CF8B2DCDB7DEB7E9E00A
:101B10000C94FE1F80911A0287FF11C08091E8008B
:101B200082FD05C0809124028111F8CF11C08091FF
:101B3000E8008B770BC080912402882349F08091C4
:101B4000E80080FFF8CF8091E8008E778093E8006E
:101B50000895982F973068F59093E900981739F019
:101B60007091EC002091ED005091F00003C0242F03
:101B7000762F50E021FD02C09F5FECCF3091EB004B
:101B80003E7F3093EB003091ED003D7F3093ED00D0
:101B90003091EB0031603093EB007093EC002093B8
:101BA000ED005093F0002091EE0027FDE5CF80E09E
:101BB00008958F708093E90081E0089520912002BC
:101BC000309121022617370748F06115710539F465
:101BD0002091E8002E772093E80001C0B901FC01B4
:101BE00020E06115710579F1809124028823F1F1DB
:101BF0008530F1F18091E80083FD3CC08091E800E0
:101C000082FD2EC08091E80080FFEBCF2091F30091
:101C10008091F20090E0922B6115710551F08830AF
:101C2000910538F421912093F100615071090196DA
:101C3000F3CF21E0089709F020E08091E8008E774B
:101C40008093E800CECF2111CFCF0AC0809124022B
:101C5000882361F0853061F08091E80083FD0AC03F
:101C60008091E80082FFF2CF80E0089582E008953D
:101C700083E0089581E008950895BC0184E00E9406
:101C80000D1A0895BC0183E00E940D1A0895AAE27E
:101C9000B0E0EDE4FEE00C94E81FEAE1F2E082E25D
:101CA00092E02091F10021938E179F07D1F7809148
:101CB0001B02833009F463C030F4813071F082304C
:101CC00009F49FC0B6C08A3009F48BC08B3009F488
:101CD0006EC0893009F0ADC020C080911A02813AEF
:101CE00009F0A7C08091E800877F8093E800809189
:101CF0001E0290911F02892B21F460E287EF91E090
:101D000003C060E080E090E070E00E94DE0D809112
:101D1000E8008B778093E8008CC080911A028132B2
:101D200009F087C080911E0290911F02009719F060
:101D3000039709F07EC08091E800877F8093E800D8
:101D40008091E80082FD05C0809124028111F8CFC6
:101D500070C02091F3008091F20090E0922B0297E6
:101D600031F48091F100813011F0863021F48091BE
:101D7000F1008093F6018091E8008B7756C0809146
:101D80001A02813A09F055C080911E0290911F02FB
:101D9000892B09F04EC08091E800877F8093E8008E
:101DA0008091E80080FFFCCF80910A0139C08091CA
:101DB0001A028132F1F580911E0290911F02892B47
:101DC000C1F58091E800877F8093E8000E948A0D2A
:101DD00080911C0280930A011092F4010E94F21D6E
:101DE00028C080911A02813221F58091E800877F16
:101DF0008093E8000E948A0D80911D028093F50176
:101E000018C080911A02813AA1F48091E800877F7E
:101E10008093E8008091E80080FFFCCF8091F5017D
:101E20008093F1008091E8008E778093E8000E9413
:101E30008A0D8091E80083FFE4C180911A0290919D
:101E40001B02492F50E04A30510508F0DAC1FA016F
:101E5000EE59FF4F0C943B21803821F0823809F075
:101E6000D0C108C08091170290911802992389F07F
:101E700082600FC080911E028F70873008F0C1C150
:101E80008093E9008091EB0085FB882780F9109210
:101E9000E9009091E800977F9093E8008093F1002B
:101EA0001092F10070C1282F2D7F09F0AAC188235C
:101EB00019F0823061F0A5C180911C02813009F0D7
:101EC000A0C1933009F080E0809318022EC0809169
:101ED0001C0281112AC080911E028F702FEF280FE3
:101EE000263008F08EC18093E9002091EB0020FF9E
:101EF0001CC0933021F48091EB00806214C090915B
:101F0000EB0090619093EB0021E030E0A90102C06A
:101F1000440F551F8A95E2F74093EA001092EA00B9
:101F20008091EB0088608093EB001092E900809133
:101F3000E800877F8093E8000E948A0D62C18111CA
:101F400060C110911C021F778091E3008078812B83
:101F50008093E3008091E800877F8093E8000E94EF
:101F60008A0D8091E80080FFFCCF8091E3008068BB
:101F70008093E300111102C082E001C083E08093EE
:101F800024023FC18058823008F03BC120911C02DE
:101F900030911D022C3D53E0350779F583E08A83AB
:101FA0008AE289834FB7F894DE01139620E03EE081
:101FB00051E2E32FF0E050935700E49120FF03C07B
:101FC000E295EF703F5FEF708E2F90E0EA3010F0F7
:101FD000C79601C0C0968D939D932F5F243149F71A
:101FE0004FBF8091E800877F8093E8006AE270E04D
:101FF000CE0101960E94DE0DB4C080911E02909128
:102000001F02432F552743305105A9F068F4413092
:10201000510509F405C14230510509F0F2C084E7C9
:1020200090E0E2E0F4E04BC04132510529F1423248
:10203000510589F1E6C0C901992781309105A1F0C8
:1020400058F0029709F0DDC0E8E8F4E0E4918E2F43
:1020500090E0E8E8F4E030C0EAECF4E0E4918E2FA0
:1020600090E0EAECF4E028C0E0EAF4E0E4918E2F9E
:1020700090E0E0EAF4E020C08430910508F0C1C0AF
:10208000880F991FFC01EA5AFE4F0190F081E02D64
:1020900089E090E014C08430910508F0B2C0FC01E2
:1020A000EE0FFF1FE25BFE4F0190F081E02DDC019F
:1020B000A65BBE4F8C9190E0009709F4A2C02091DE
:1020C000E800277F2093E800209120023091210230
:1020D0002817390708F4C90140E0009789F12091D9
:1020E0002402222309F43DC02530D9F12091E800D3
:1020F00023FD37C02091E80022FD2FC02091E80089
:1021000020FFEBCF4091F3002091F20030E0342B20
:10211000009759F02830310540F444914093F10084
:10212000319601972F5F3F4FF3CF41E028303105C3
:1021300009F040E02091E8002E772093E800CDCF11
:102140004111CDCF0AC080912402882351F08530FF
:1021500041F08091E80083FD04C08091E80082FF97
:10216000F2CF8091E8008B778093E8004AC08038F6
:1021700009F047C08091E800877F8093E800809154
:1021800019028093F1008091E8008E77D3CE8111FF
:1021900038C080911C0290911D02992702978CF5FE
:1021A0008091E800877F8093E80010911C021093D3
:1021B00019020E948A0D111106C08091E30087FD6B
:1021C00002C081E001C084E08093240242E061EC1F
:1021D00081E00E94A90D42E061EC82E00E94A90D1D
:1021E00042E261EC85E00E94A90D42E261EC83E0ED
:1021F0000E94A90D42E260EC84E00E94A90D80914A
:1022000024028091E80083FF10C08091E800877F5E
:102210008093E8008091EB0080628093EB0005C022
:1022200082E190E0E6E7F4E04ACFAA96E3E00C947E
:1022300004201F920F920FB60F9211242F933F93F9
:102240004F935F936F937F938F939F93AF93BF93BE
:10225000CF93DF93EF93FF93C091E900CF7080910C
:10226000EC00D82FD17080FDD0E81092E900809169
:10227000F000877F8093F00078940E94470E1092C0
:10228000E9008091F00088608093F000CD2BCF7042
:10229000C093E900FF91EF91DF91CF91BF91AF9192
:1022A0009F918F917F916F915F914F913F912F916E
:1022B0000F900FBE0F901F901895E8EDF0E0808111
:1022C0008E7F80831092E2001092DA001092E1007B
:1022D000A0EEB0E08C9181608C9380818F778083B9
:1022E00019BCA7EDB0E08C918E7F8C9380818F7E9E
:1022F00080831092F3010895A0E0B0E0E2E8F1E1FC
:102300000C94E31FC8EDD0E088818F7E8883E7EDD1
:10231000F0E080818160808384E082BF81E08093EF
:10232000F30188818E7F888302EE10E0F80110822D
:102330001092DA0081EEC82ED12CF601108288812D
:102340008F77888388818068888388818F7D888360
:1023500019BC1092240210921902109218021092C5
:10236000170290EEE92EF12CF70180818B7F80839C
:1023700088818160888342E060E080E00E94A90D4E
:10238000F60180818E7F8083F80180818160808367
:10239000808188608083F70180818E7F808388813F
:1023A00080618883CDB7DEB7E8E00C94FF1F1F92F1
:1023B0000F920FB60F9211242F933F934F935F9379
:1023C0006F937F938F939F93AF93BF93EF93FF93FD
:1023D0008091E10082FF09C08091E20082FF05C088
:1023E0008091E1008B7F8093E1008091DA0080FF93
:1023F0002AC08091D80080FF26C08091DA008E7FAD
:102400008093DA008091D90080FF18C080E189BDF7
:1024100082E189BD09B400FEFDCF81E080932402F2
:102420008091F30181110FC00E945D110E947C1107
:102430008091E20084608093E20005C019BC109294
:1024400024021092F3018091E10080FF17C0809177
:10245000E20080FF13C08091E2008E7F8093E20053
:102460008091E20080618093E2008091D8008062D8
:102470008093D80019BC85E0809324028091E1000C
:1024800084FF30C08091E20084FF2CC080E189BDD0
:1024900082E189BD09B400FEFDCF8091D8008F7D17
:1024A0008093D8008091E1008F7E8093E10080913D
:1024B000E2008F7E8093E2008091E2008160809351
:1024C000E20080911902882311F084E007C0809116
:1024D000E30087FD02C081E001C083E08093240215
:1024E000809124028091E10083FF27C08091E20067
:1024F00083FF23C08091E100877F8093E10082E029
:1025000080932402109219028091E1008E7F8093C3
:10251000E1008091E2008E7F8093E2008091E200F2
:1025200080618093E20042E060E080E00E94A90DBB
:102530008091F00088608093F000FF91EF91BF914F
:10254000AF919F918F917F916F915F914F913F914B
:102550002F910F900FBE0F901F9018952091E400BF
:102560003091E50095E64091EC00842F817040FFAA
:1025700023C08091E80080FD1DC080912402882343
:1025800099F0853099F08091EB0085FD11C0409164
:10259000E4005091E5002417350729F3915011F01C
:1025A0009A01E1CF84E0089582E0089583E00895E0
:1025B00081E0089580E008954091E80042FFDDCF7A
:1025C0000895EF92FF920F931F93CF93DF937C01B7
:1025D0008B010E94AE12811119C0E701011511058E
:1025E000A1F08091E80085FD0AC08091E8008E7717
:1025F0008093E8000E94AE12882381F307C089917E
:102600008093F10001501109E9CF80E0CDB7DEB72A
:10261000E6E00C940120CF9320912402243029F588
:10262000C091E900CF703091EC00232F217030FD74
:1026300020E8C22B23E02093E9002091E80020FF4E
:1026400011C040E050E060E270E00E94E112882397
:1026500021F010922202109223028091E8008E77DE
:102660008093E800CF70C093E900CF910895ACE566
:10267000B0E0EDE3F3E10C94E11F85B7806885BF1E
:1026800085B7806885BF84B7877F84BF0FB6F8940D
:10269000A89580916000886180936000109260002E
:1026A0000FBE90E080E80FB6F8948093610090939D
:1026B00061000FBE80E697E090936B0180936A0102
:1026C0000E945D110E947C118091E20084608093E1
:1026D000E2007894809124028823A1F01091E9000F
:1026E0001F709091EC00892F817090FD80E8182B6D
:1026F0001092E9008091E80083FD0E94470E1F7050
:102700001093E90082E084BD93E095BD9AEF97BDF8
:1027100080936E000E941C1890E0909318018093A3
:1027200017010E9457190E949D19EBE2F2E0ADE3F8
:10273000B2E011921D9222E0E933F207D1F78EE068
:1027400090E00E9441218093250290932602FC0193
:102750000E961192E817F907E1F789EA8093800055
:1027600089E08093810024982C983F988AB18F7CCF
:102770008AB96E98479A8BB180638BB9769A8FE04D
:1027800090E00E9484206093270270932802809337
:10279000290290932A0267703FEF639FB0011124D2
:1027A0007595679575956795772770938900609300
:1027B000880070938B0060938A0070938D00609303
:1027C0008C000E94931880E090E00E948A20883E4E
:1027D0009E4F11F00E94580982E090E00E947C20F8
:1027E00080934B0284E090E00E947C20182F82E2CC
:1027F00090E00E947C20212F30E0382B309384021F
:102800002093830283E090E00E947C20682F70E098
:1028100080E090E00E94C71D6091390270913A02F9
:1028200080913B0290913C020E94EA178BE091E07C
:1028300090937B0280937A0288E1E82EF12C90E459
:10284000D92E80912402853009F054C000E112E1B4
:1028500080912402853009F047C0809124028430A1
:1028600009F110927E020FB6F894A895E0926000EC
:102870000FBED092600083B7817F846083BF83B72F
:10288000816083BF7894889583B78E7F83BF0FB6AE
:10289000F894A89580916000886180936000109200
:1028A00060000FBE80911802882391F20E941C18CC
:1028B00090E090931801809317010E9457190E948D
:1028C0009D19EDE3F2E0119282E0EB34F807D9F7BD
:1028D0000E946A0CEDE3F2E08191811153C222E083
:1028E000EB34F207C9F7B4CF1092F4010E94F21D45
:1028F0000E94F61A0E946A0C882359F08FB7F89448
:1029000040917F0250918002609181027091820219
:102910008FBFACE4B2E0EDE3F2E000E010E0302F76
:1029200021919D919227A1F180E0CC24C394492F5D
:102930004C2151F164968FAF649765963FAF6597D0
:102940002C2181E009F480E066968FAF66970E94A3
:102950006D1A8160782F68969FAF8EAF68976496E6
:102960004FAD649765965FAD659766966FAD669758
:1029700068968FAD68970E94E316F801E45BFD4FFF
:102980008081C826C0822AC08F5FCC0C863079F641
:102990000F5F1F4F0E30110509F0C1CF8FEF699601
:1029A0008FAF69976A968FAF6A976B961FAE6B97DA
:1029B0000E946D1A8160782F6D969FAF8EAF6D97D4
:1029C00069964FAD69976A965FAD6A976B966FADE2
:1029D0006B976D968FAD6D970E94E316809177028D
:1029E000882369F00E946D1A20915A0230915B028F
:1029F000821B930B8F3F9F4710F40E94031B85E0BF
:102A0000E1E7F2E0DE01119601900D928A95E1F77F
:102A10001092720210927302109274021092750258
:102A20001A81111104C08B81882309F452C080914E
:102A30006F02909170020E945E1A9C0190916B024D
:102A4000992309F4B7C12531310508F442C09F3FED
:102A500019F09F5F90936B02112361F00E94EE1BAF
:102A6000111614F09FEF01C091E0899F802D112471
:102A7000809372021B81112361F00E94EE1B1116DC
:102A800014F09FEF01C091E0899F802D1124809365
:102A90007302309172023323E1F0209173022223FA
:102AA000C1F045EB3403C0011124992319F0909330
:102AB000720203C081E08093720235EB2303C001F0
:102AC0001124992319F09093730203C081E080933D
:102AD00073021C81111104C08D81882309F452C036
:102AE00080916D0290916E020E945E1A9C019091FD
:102AF0006A02992309F462C12531310508F442C004
:102B00009F3F19F09F5F90936A02112361F00E942A
:102B1000CE1B111614F09FEF01C091E0899F802D0C
:102B20001124809374021D81112361F00E94CE1B39
:102B3000111614F09FEF01C091E0899F802D1124A0
:102B400080937502309174023323E1F02091750275
:102B50002223C1F045EB3403C0011124992319F05D
:102B60009093740203C081E08093740235EB2303D9
:102B7000C0011124992319F09093750203C081E0DC
:102B80008093750245E050E0BE016F5F7F4F81E7A3
:102B900092E00E946222892BA9F480917202811135
:102BA0000FC08091730281110BC08091740281115A
:102BB00007C081E090917502911103C080E001C0CF
:102BC00081E080FD0E94301B85E0FE013196A1E787
:102BD000B2E001900D928A95E1F70E94F61A909169
:102BE0005C02891380935C0280912402843009F096
:102BF00028CE8093E9008091E80082FF22CE809168
:102C0000E80085FF22C00E94AE1281111CC000E2C4
:102C100010E05E0141E2A40EB11C08C08091F100F9
:102C2000F50181935F010150110969F08091E8007D
:102C300085FDF4CF8091E8008B778093E8000E94B7
:102C4000AE12882399F391E001C090E08091E800F2
:102C50008B778093E800992309F4F3CD89A1813023
:102C6000E9F158F1823021F0843009F47DC0E9CDDA
:102C70008BA19AA190935D0280935E028DA19CA18D
:102C800090935F02809360028FA19EA19093610256
:102C90008093620242E150E063E270E0CE018F5B1C
:102CA0009F4F0E946C2084E0898381E080932302FF
:102CB0008EEF8A83109222020CC019828CE0EEE51E
:102CC000F1E0DE01129601900D928A95E1F78EEF08
:102CD0008D87CE0101960E940B13B3CD03E612E05F
:102CE0000E94111BF801819391938F01F2E0093644
:102CF0001F07B1F781E08983909163029A839091D5
:102D000064029B83909165029C83909166029D83EF
:102D1000909167029E83909168029F839EEF9887AF
:102D200080932202CE0101960E940B1342E150E0F3
:102D300063E270E0CE0101960E946C20FE013196A4
:102D400082E183301CF09189928B01C0128A8150FC
:102D500031978F3FB1F742E150E063E270E0CE017E
:102D600001960E9490206DCD80912302882309F462
:102D700068CD60E070E0CB010E943C1D8AA10E94FA
:102D8000A51D5FCD09BD19BD09B400FEFDCF809121
:102D9000D8008F7D8093D8008091E000826080937E
:102DA000E0008091E00081FDFCCF1092F4010E94D0
:102DB000F21D4ECD232B09F04CCE8BCE2139314064
:102DC00008F0A0CEDFCEA7E1B0E0E9EEF6E10C948A
:102DD000E81F4B8B5C8B6D8B7E8B8F8B6111109200
:102DE000760286E09E01235F3F4FD901E82F1D92B6
:102DF000EA95E9F795E0FE017396D90101900D92ED
:102E00009A95E1F79C894E895F897B897D879E87AA
:102E10006F87598B488BF901DE01179601900D924F
:102E20008A95E1F7CE0107960E94E30A81113EC020
:102E300086E0FE013796DE01119601900D928A958B
:102E4000E1F7FF81E8856A857B856115710531F0C1
:102E5000EF3F31F481E0FF3F19F403C081E001C08E
:102E600080E080FD23C02091930130E0C9010196EC
:102E7000877099274091C40150E08417950779F134
:102E8000F983EA837D836C8396E0929FD001939FC0
:102E9000B00D1124AC56BE4FFE01319601900D923B
:102EA0009A95E1F7809393010E94700A16E0809151
:102EB000C40190919301891709F1189FC001112451
:102EC0008C569E4F0E94E30A8823C1F08091C40172
:102ED00090E00196877099278093C401E8CF109203
:102EE000F4010E94F21D109293011092C401EDE8CA
:102EF000F1E086E0DF011D928A95E9F76796E3E04D
:102F00000C940420CF92DF92EF92FF926C01EE249A
:102F1000FF24C114D104E104F10421F0C701B6017A
:102F200020E101C020E0C72ED82EE92EFF24C114D5
:102F3000D104E104F10419F0285FC701B6016B0167
:102F40007C0154E0F694E794D794C7945A95D1F74E
:102F5000C114D104E104F10419F02C5FC701B601DA
:102F60006B017C0142E0F694E794D794C7944A95AC
:102F7000D1F7C114D104E104F10419F02E5FC701A7
:102F8000B601DC01CB01B695A79597958795892B5E
:102F90008A2B8B2B09F02F5F822FFF90EF90DF9011
:102FA000CF9008951092F4010E94F21D2FEF84E358
:102FB0009CE0215080409040E1F700C000009AE082
:102FC00088E10FB6F894A895809360000FBE9093A7
:102FD0006000FFCFCF92DF92EF92FF926B017C01F6
:102FE0000E94821756985E9825982D9826982E98BC
:102FF00027982F9890E0FC013197E730F105A8F46D
:10300000E459FF4F0C943B21259A2D9A0EC0259A26
:103010002D9A269A2E9A09C0259A2D9A04C0259A8F
:103020002D9A269A2E9A279A2F9AC701B601FF90B9
:10303000EF90DF90CF90089580E290E09093180198
:10304000809317018091690281110EC00E94F11EC8
:1030500081E0809369022FEF83ED90E3215080405F
:103060009040E1F700C0000064E670E080E40E9458
:10307000F71E9093180180931701892B09F04EC019
:1030800064E670E080E00E946C1F909318018093CA
:103090001701892B09F042C064E670E080E00E94CD
:1030A0006C1F9093180180931701892BB9F564E682
:1030B00070E08FE30E946C1F9093180180931701BA
:1030C000892B61F50E94C11F64E670E080E40E94D4
:1030D000F71E9093180180931701892BF9F464E689
:1030E00070E08CE00E946C1F909318018093170190
:1030F000892BA1F464E670E080E00E946C1F90933D
:10310000180180931701892B49F464E670E08FE37E
:103110000E946C1F90931801809317010E94C11F99
:10312000809117010895CF93DF9356985E98259864
:103130002D9826982E9827982F98C8E8D0E08FEFE2
:1031400090E099838883AAE8B0E011969C938E93CF
:10315000ECE8F0E091838083259A2D9A2FEF80E7A9
:1031600092E0215080409040E1F700C00000269A94
:103170002E9A2FEF80E792E0215080409040E1F7B7
:1031800000C00000279A2F9A2FEF80E792E021508D
:1031900080409040E1F700C0000025982D982FEF67
:1031A00080E792E0215080409040E1F700C00000AD
:1031B00026982E982FEF80E792E021508040904093
:1031C000E1F700C0000027982F98809127028770B0
:1031D0002FEF829FC001112495958795959587952E
:1031E00099279983888311969C938E9391838083EA
:1031F00056985E9825982D9826982E9827982F985F
:10320000DF91CF910895CF93E82F873080F580919B
:10321000170190911801892B09F047C0CE2F64E661
:1032200070E080E40E94F71E9093180180931701CC
:10323000892BD1F464E670E082E10E946C1F9093C8
:10324000180180931701892B79F481E090E001C087
:10325000880FCA95EAF764E670E080950E946C1FBB
:1032600090931801809317010E94C11F1EC090E027
:10327000FC013797E730F105C0F4ED58FF4F0C948F
:103280003B21209A289811C0219A29980EC0229A91
:103290002A980BC0239A2B9808C0529A5A9805C0B6
:1032A000539A5B9802C03E9A4698CF910895209811
:1032B00028982198299822982A9823982B985298F0
:1032C0005A9853985B983E9846980895CF938730C4
:1032D00040F58091170190911801892B59F564E60A
:1032E00070E081E40E94F71E90931801809317010B
:1032F000892B11F0C0E011C084E690E00E949C1F71
:1033000097FF05C09093180180931701F3CFC82F42
:10331000C09510921801109217010E94C11F8C2FA6
:103320000AC09FB18FB1807F869586959370892B57
:10333000809501C080E0CF9108958098889A819807
:10334000899A84988C9A85988D9A86988E9A87986F
:103350008F9A08958091F601089522E02093E90064
:103360002FEF3091E800215035FD06C035ED3A953C
:10337000F1F700002111F5CF2091E80025FF0BC0E7
:1033800040E050E065E070E00E94E1128091E800CA
:103390008E778093E8000895CF93DF9320910A0100
:1033A000222339F02091830227FF03C060E225E049
:1033B00002C068E021E02093E9002FEF3091E8009F
:1033C000215035FD06C035ED3A95F1F70000211189
:1033D000F5CF2091E80025FF1DC0EC0180910A0186
:1033E000811105C040E050E068E070E003C070E08B
:1033F00040E050E0CE010E94E1128091E8008E771B
:103400008093E80080E2FE01A7EFB1E001900D9209
:103410008A95E1F7DF91CF910895809385027093AB
:1034200087026093860280912402843001F585E052
:103430008093E9008FEF9091E800815095FD06C0E0
:1034400095ED9A95F1F700008111F5CF8091E80094
:1034500085FF0DC040E050E063E070E085E892E059
:103460000E94E1128091E8008E778093E800089531
:1034700078941F920F920FB60F9211248F939F93FF
:10348000AF93BF9380917F0290918002A0918102BF
:10349000B09182020196A11DB11D80937F0290938D
:1034A0008002A0938102B0938202BF91AF919F915D
:1034B0008F910F900FBE0F901F9018959C014FB7E2
:1034C000F89480917F0290918002A0918102B09146
:1034D00082024FBF821B930B08952FB7F8948091FF
:1034E0007F0290918002A0918102B09182022FBF51
:1034F00008951F920F920FB60F9211248F939F93EE
:10350000AF93BF9380917E02811113C080917F029F
:1035100090918002A0918102B09182024196A11DFA
:10352000B11D80937F0290938002A0938102B0939B
:103530008202BF91AF919F918F910F900FBE0F901C
:103540001F90189520910A012223C9F0209183022F
:1035500027FF15C0262F2695269526952E31C8F4CF
:10356000FC01E20FF11D677081E090E001C0880F5F
:103570006A95EAF780959281892382830895FC01F8
:1035800006962281621301C012823196E817F9076C
:10359000C1F7089520917C0230917D0228173907E8
:1035A00071F090937D0280937C02E0917A02F09119
:1035B0007B02309721F00084F185E02D0995089574
:1035C00020917802309179022817390771F0909391
:1035D000790280937802E0917A02F0917B02309731
:1035E00021F00680F781E02D09950895E0917A0297
:1035F000F0917B02309729F00190F081E02D099540
:10360000089580E0089580917702882349F08091A1
:1036100076028D7D809376020E94E20910927702F5
:103620000895CF93DF930E945C2066E070E00E94D3
:103630002721D82F0E945C206EE070E00E94272195
:10364000C82F6D2F782F80E00E94A507892B19F0D5
:103650008D2F9C2F02C00E94111BDF91CF910895E6
:103660000E946D1A20917202211104C020917302F0
:10367000222321F09093700280936F0220917402B4
:10368000211104C020917502222321F090936E0233
:1036900080936D02E0917A02F0917B02309731F0D5
:1036A0000480F581E02D81E792E0099508958D3E33
:1036B00039F49091730297FF35C01092730259C08C
:1036C0008E3E29F4909173021916BCF32BC0909191
:1036D00072028F3E29F497FF25C01092720249C0F2
:1036E000803F19F41916CCF31DC090917402893FE4
:1036F00029F41916BCF4109274023BC08A3F19F4E5
:1037000097FF10C0F8CF8B3F39F49091750297FF67
:1037100009C0109275022DC08C3F21F49091750262
:103720001916BCF39FE0980F983080F421E030E048
:10373000A90102C0440F551F9A95E2F7CA0180956E
:103740009091710289238093710213C08D3F21F4FF
:1037500080916C028E7F0BC08E3F21F480916C02B1
:103760008D7F05C08F3F29F480916C028B7F809301
:103770006C0280917202811106C0809173028111E6
:1037800002C010926B0280917402811106C0809178
:103790007502811102C010926A02089580916C0234
:1037A00080FD18C081FD14C082FD16C080916A02A0
:1037B000882381F08C3380F427E0829FC00111249C
:1037C0006CE370E00E942721862F672B19F005C05B
:1037D00083E0089581E0089587E0089580916C0268
:1037E00080FD17C081FD17C082FD19C080916B025A
:1037F000882399F08C3398F428E3829FC001112428
:103800006CE370E00E942721862F672B49F481E04A
:1038100008958EE008958CE1089588E0089588E386
:1038200008958D3E21F40E94EE1B819504C08E3ECA
:1038300029F40E94EE1B8093730208958F3E21F4B9
:103840000E94EE1B819504C0803F29F40E94EE1B6C
:10385000809372020895893F19F40E94CE1B05C01F
:103860008A3F31F40E94CE1B8195809374020895A3
:103870008B3F21F40E94CE1B819504C08C3F29F41C
:103880000E94CE1B8093750208959FE0980F983098
:1038900078F421E030E0A90102C0440F551F9A9549
:1038A000E2F7CA0190917102892B80937102089509
:1038B0008D3F21F480916C0281600BC08E3F21F41A
:1038C00080916C02826005C08F3F29F480916C0268
:1038D000846080936C02089580E090E00E94E01A7A
:1038E00080E090E00E94CA1A109276020E94E209DB
:1038F000E1E7F2E085E0DF011D928A95E9F7109299
:103900006B0210926A0210926C020E94301B0895A2
:10391000A0E0B0E0EEE8FCE10C94E21F8C01C09066
:103920003902D0903A02E0903B02F0903C02809144
:10393000E7019091E801A091E901B091EA01C82A5C
:10394000D92AEA2AFB2ACFE1D0E0D701C6010C2E02
:1039500004C0B695A795979587950A94D2F780FDF0
:1039600004C0219790F7B12C09C0BC2EB8018C2F50
:103970000E94A5070E94BE07019799F38B2DCDB732
:10398000DEB7E9E00C94FE1FCF93DF93EC010E94B9
:10399000881CBE010E94A5070E94BE07DF91CF913F
:1039A0000895292F9E3080F5863070F590E036E03E
:1039B000239F800D911D1124682F677023E0969539
:1039C00087952A95E1F725E0289FF001299FF00DC2
:1039D0001124E857FD4F40E050E080E0219130E0B5
:1039E000062E02C0369527950A94E2F721703327F8
:1039F000042E01C0220F0A94EAF7822B4F5F5F4F1B
:103A00004530510559F7089580E00895292F9E30DB
:103A100090F5863080F590E036E0239F800D911D73
:103A20001124282F277051E001C0550F2A95EAF77D
:103A300023E0969587952A95E1F725E0289FF001E8
:103A4000299FF00D1124E857FD4F20E030E070E091
:103A50004081CB01022E02C0969587950A94E2F729
:103A60008170819584278523842781932F5F3F4F21
:103A70002530310569F70895CF92DF92EF92FF92DA
:103A8000CF93DF93CDB7DEB7A0970FB6F894DEBF24
:103A90000FBECDBF0E94EA176B017C01809123020B
:103AA0008823B1F02FEF80E792E0215080409040D2
:103AB000E1F700C0000085E08983C701B6010E94DC
:103AC00082178A838EEF8B83CE0101960E940B139F
:103AD000C0923902D0923A02E0923B02F0923C024C
:103AE0000E946C1CA0960FB6F894DEBF0FBECDBF2F
:103AF000DF91CF91FF90EF90DF90CF9008950F93DB
:103B00001F9341E050E060E070E004C0440F551F97
:103B1000661F771F8A95D2F74095509560957095EE
:103B20008091390290913A02A0913B02B0913C02FF
:103B30008A019B01082319232A233B23C901B801C9
:103B40000E943C1D1F910F9108950F931F9341E018
:103B500050E060E070E004C0440F551F661F771FFF
:103B60008A95D2F78091390290913A02A0913B0256
:103B7000B0913C028A019B01082B192B2A2B3B2B6D
:103B8000C901B8010E943C1D1F910F9108956093D7
:103B9000E7017093E8018093E9019093EA010E94A4
:103BA0006C1C0895FC01808191810E94C41C929537
:103BB0009F70963079F010F4925001C09A50923074
:103BC00068F4803F69F018F4883E40F409C0843FEF
:103BD00029F406C0883E20F0813F11F080E008956E
:103BE00081E0089580910A01882331F08091830259
:103BF00087FF02C08EE101C086E0EFE6F1E0DF0161
:103C00001D928A95E9F70E946C1C0895882321F083
:103C10000E94DB090E94E2090895882339F09091FF
:103C2000F401892B8093F4010E94E209089588230E
:103C300091F19CEF980F913A30F4682F8DE691E066
:103C40000E94A21A0DC090E2980F983060F487701D
:103C500091E001C0990F8A95EAF7892F0E94DB094C
:103C60000E94E20908959BE5980F933028F480E0C4
:103C700090E00E94E01A089598E5980F973128F493
:103C800080E090E00E94CA1A08958D3E20F00E94C4
:103C9000571B0E94301B0895CF93882309F49FC0BF
:103CA000C82F8CEF8C0F813A08F05BC080910A011D
:103CB0008823E1F08091830287FF18C0EC2FE695FE
:103CC000E695E695F0E0E359FE4F8281282F30E03B
:103CD0004C2F477081E090E002C0880F991F4A95F1
:103CE000E2F782239323892B59F411C0EFE6F1E028
:103CF0008191C81729F081E0E537F807C9F707C0B7
:103D00006C2F8DE691E00E94A21A0E94E209809138
:103D10000A018823B1F08091830287FF12C0EC2F43
:103D2000E695E695E695F0E0E359FE4FC77081E031
:103D300090E001C0880FCA95EAF79281892B8283AF
:103D400020C0AFE6B1E0EFEF80E09D91C917C9F068
:103D5000EF3F19F4911101C0E82F8F5F8630A9F76A
:103D600035C080E28C0F883078F4C77081E090E035
:103D700001C0880FCA95EAF79091F401892B8093CE
:103D8000F4010E94E2092BC0EBE5EC0FE33040F4B4
:103D9000F0E0E75EFE4F808190E00E94E01A1FC0D5
:103DA000E8E5EC0FE73150F4F0E0EE0FFF1FE45EC2
:103DB000FE4F808191810E94CA1A11C0CD3E78F0D9
:103DC0008C2F0E94111C0E94301B09C0EF3FC9F2CA
:103DD0000E2E000CFF0BE359FE4FC283D2CFCF91C2
:103DE00008951092B9008CE08093B8000895A0E087
:103DF000B0E0EDEFFEE10C94E01FB82EEB010E9465
:103E00006D1A6C01C431D10558F0CF3F8FEFD80740
:103E100059F0CE0164E170E00E94C51F7B0107C02C
:103E2000EE24E394F12C03C025E0E22EF12C84E88B
:103E3000A82E94EA992E1092BC009092BC000E9489
:103E40006D1A8C018091BC0087FD08C00E946D1A1C
:103E5000801B910B8E159F05A8F32AC08091B90095
:103E6000887F883041F08091B900887F803119F0D7
:103E70000FEF1FEF1FC0B092BB00A092BC000E94CA
:103E80006D1A8C018091BC0087FD08C00E946D1ADC
:103E9000801B910B8E159F05A8F30AC08091B90075
:103EA000887F883111F0803419F700E010E00EC0EF
:103EB0000EEF1FEFCF3F8FEFD80709F4BCCFC6013D
:103EC0000E945E1A8C179D0708F4B5CFC801CDB7C4
:103ED000DEB7EBE00C94FC1F0F931F93CF93DF939F
:103EE000EB018093BB0084E88093BC000E946D1AB4
:103EF0008C018091BC0087FD0EC0CF3F8FEFD807AB
:103F0000C1F30E946D1A801B910B8C179D0788F3DB
:103F10008EEF9FEF0CC02091B900287F81E090E0E8
:103F2000283211F480E090E0919581959109DF911C
:103F3000CF911F910F9108950F931F93CF93DF930C
:103F4000EC0184E88093BC000E946D1A8C01809182
:103F5000BC0087FD0EC0CF3F8FEFD807C1F30E9492
:103F60006D1A801B910B8C179D0788F38EEF9FEFC6
:103F700003C08091BB0090E0DF91CF911F910F9122
:103F8000089584E98093BC000895AA1BBB1B51E1EE
:103F900007C0AA1FBB1FA617B70710F0A61BB70BB9
:103FA000881F991F5A95A9F780959095BC01CD015E
:103FB00008952F923F924F925F926F927F928F92CD
:103FC0009F92AF92BF92CF92DF92EF92FF920F93A8
:103FD0001F93CF93DF93CDB7DEB7CA1BDB0B0FB6B2
:103FE000F894DEBF0FBECDBF09942A88398848886F
:103FF0005F846E847D848C849B84AA84B984C88405
:10400000DF80EE80FD800C811B81AA81B981CE0FFB
:10401000D11D0FB6F894DEBF0FBECDBFED010895E0
:104020008F929F92AF92BF92CF92DF92EF92FF92C8
:10403000CF93DF93EC01688179818A819B8161153F
:1040400071058105910521F464E279ED8BE597E036
:104050002DE133EF41E050E00E94C42049015A01B4
:104060009B01AC01A7EAB1E40E94E3206B017C0153
:10407000ACEEB4EFA50194010E94F120DC01CB016C
:104080008C0D9D1DAE1DBF1DB7FF03C00197A1097B
:10409000B04888839983AA83BB839F77DF91CF91B0
:1040A000FF90EF90DF90CF90BF90AF909F908F9058
:1040B00008950E941020089580E091E00E94102051
:1040C0000895A0E0B0E08093000190930101A093D7
:1040D0000201B09303010895DC01CB01FC01F999C1
:1040E000FECF06C0F2BDE1BDF89A319600B40D9244
:1040F00041505040B8F70895F999FECF92BD81BD67
:10410000F89A992780B50895A6E1B0E044E050E020
:104110000C946E20A8E1B0E042E050E00C946E20D8
:10412000DC01A40FB51F4150504048F0CB01840F73
:10413000951F2E910E94A12041505040D0F7089524
:10414000262FF999FECF92BD81BDF89A019700B450
:10415000021639F01FBA20BD0FB6F894FA9AF99AF0
:104160000FBE08950396272F0E94A1200E94A02031
:10417000252F0E94A120242F0C94A1200196272FE7
:104180000E94A1200C94A020052E97FB1EF4009401
:104190000E94DB2057FD07D00E94F62007FC03D0C9
:1041A0004EF40C94DB2050954095309521953F4F6F
:1041B0004F4F5F4F089590958095709561957F4F13
:1041C0008F4F9F4F08950E941821A59F900DB49F77
:1041D000900DA49F800D911D11240895B7FF0C949C
:1041E000E3200E94E320821B930B0895A1E21A2E84
:1041F000AA1BBB1BFD010DC0AA1FBB1FEE1FFF1F8B
:10420000A217B307E407F50720F0A21BB30BE40BDA
:10421000F50B661F771F881F991F1A9469F7609521
:104220007095809590959B01AC01BD01CF010895DB
:10423000A29FB001B39FC001A39F700D811D1124E7
:10424000911DB29F700D811D1124911D089597FB42
:10425000072E16F4009407D077FD09D00E94C51FE1
:1042600007FC05D03EF4909581959F4F0895709579
:1042700061957F4F0895EE0FFF1F0590F491E02D9B
:1042800009940F931F93CF93DF938230910510F41D
:1042900082E090E0E091C102F091C20220E030E0C3
:1042A000A0E0B0E0309719F1408151810281138183
:1042B00048175907C8F08417950769F4109731F02B
:1042C00012960C93129713961C9327C00093C10269
:1042D0001093C20222C02115310519F0421753076D
:1042E00018F49A01BD01EF01DF01F801DBCF2115C0
:1042F0003105F9F0281B390B2430310580F48A810F
:104300009B816115710521F0FB019383828304C0B9
:104310009093C2028093C102FE01329644C0FE0116
:10432000E20FF31F8193919322503109398328833F
:104330003AC02091BF023091C002232B41F420915A
:104340000601309107013093C0022093BF022091F3
:104350000401309105012115310541F42DB73EB717
:104360004091080150910901241B350BE091BF02D7
:10437000F091C002E217F307A0F42E1B3F0B2817A1
:10438000390778F0AC014E5F5F4F2417350748F0CE
:104390004E0F5F1F5093C0024093BF0281939193D1
:1043A00002C0E0E0F0E0CF01DF91CF911F910F91CB
:1043B0000895CF93DF93009709F481C0FC013297F1
:1043C00013821282A091C102B091C202109781F4AF
:1043D00020813181820F931F2091BF023091C00252
:1043E0002817390751F5F093C002E093BF0267C068
:1043F000ED0120E030E0CE17DF0740F44A815B8119
:104400009E0141155105F1F0EA01F5CFD383C28336
:1044100040815181840F951FC817D90759F48881AD
:104420009981840F951F0296918380838A819B8155
:10443000938382832115310529F4F093C202E0931E
:10444000C1023DC0E901FB83EA8349915991C40F40
:10445000D51FEC17FD0761F480819181840F951FB2
:104460000296E90199838883828193819B838A8361
:10447000E0E0F0E012968D919C911397009719F06F
:10448000FD01DC01F7CF8D919C9111979D012E5F6D
:104490003F4F820F931F2091BF023091C002281717
:1044A000390769F4309729F41092C2021092C102C0
:1044B00002C013821282B093C002A093BF02DF91A8
:1044C000CF910895FB01DC0104C08D91019080190A
:1044D00021F441505040C8F7881B990B0895F89477
:0244E000FFCF0C
:1044E200010000000000C302200001AA19CC19AD8E
:1044F20019420E3D0E3C0E2000818283E200E9004B
:10450200EA00B500B600B700CD008301CC008A01F5
:10451200920194012102230224022502260227028B
:104522002A02B300B4006F0070004022476DC2033C
:10453200A0035903EC0214042D044D046604346FE5
:0A4542005A6A6F2F4457767A4A0038
:00000001FF
